{
    "_format": "hh-sol-artifact-1",
    "contractName": "MyEpicNFT",
    "sourceName": "contracts/myEpicNFT.sol",
    "abi": [
        {
            "inputs": [],
            "stateMutability": "nonpayable",
            "type": "constructor"
        },
        {
            "anonymous": false,
            "inputs": [
                {
                    "indexed": true,
                    "internalType": "address",
                    "name": "owner",
                    "type": "address"
                },
                {
                    "indexed": true,
                    "internalType": "address",
                    "name": "approved",
                    "type": "address"
                },
                {
                    "indexed": true,
                    "internalType": "uint256",
                    "name": "tokenId",
                    "type": "uint256"
                }
            ],
            "name": "Approval",
            "type": "event"
        },
        {
            "anonymous": false,
            "inputs": [
                {
                    "indexed": true,
                    "internalType": "address",
                    "name": "owner",
                    "type": "address"
                },
                {
                    "indexed": true,
                    "internalType": "address",
                    "name": "operator",
                    "type": "address"
                },
                {
                    "indexed": false,
                    "internalType": "bool",
                    "name": "approved",
                    "type": "bool"
                }
            ],
            "name": "ApprovalForAll",
            "type": "event"
        },
        {
            "anonymous": false,
            "inputs": [
                {
                    "indexed": false,
                    "internalType": "address",
                    "name": "sender",
                    "type": "address"
                },
                {
                    "indexed": false,
                    "internalType": "uint256",
                    "name": "tokenId",
                    "type": "uint256"
                }
            ],
            "name": "NewEpicNFTMinted",
            "type": "event"
        },
        {
            "anonymous": false,
            "inputs": [
                {
                    "indexed": true,
                    "internalType": "address",
                    "name": "from",
                    "type": "address"
                },
                {
                    "indexed": true,
                    "internalType": "address",
                    "name": "to",
                    "type": "address"
                },
                {
                    "indexed": true,
                    "internalType": "uint256",
                    "name": "tokenId",
                    "type": "uint256"
                }
            ],
            "name": "Transfer",
            "type": "event"
        },
        {
            "inputs": [
                {
                    "internalType": "address",
                    "name": "to",
                    "type": "address"
                },
                {
                    "internalType": "uint256",
                    "name": "tokenId",
                    "type": "uint256"
                }
            ],
            "name": "approve",
            "outputs": [],
            "stateMutability": "nonpayable",
            "type": "function"
        },
        {
            "inputs": [
                {
                    "internalType": "address",
                    "name": "owner",
                    "type": "address"
                }
            ],
            "name": "balanceOf",
            "outputs": [
                {
                    "internalType": "uint256",
                    "name": "",
                    "type": "uint256"
                }
            ],
            "stateMutability": "view",
            "type": "function"
        },
        {
            "inputs": [
                {
                    "internalType": "uint256",
                    "name": "tokenId",
                    "type": "uint256"
                }
            ],
            "name": "getApproved",
            "outputs": [
                {
                    "internalType": "address",
                    "name": "",
                    "type": "address"
                }
            ],
            "stateMutability": "view",
            "type": "function"
        },
        {
            "inputs": [
                {
                    "internalType": "address",
                    "name": "owner",
                    "type": "address"
                },
                {
                    "internalType": "address",
                    "name": "operator",
                    "type": "address"
                }
            ],
            "name": "isApprovedForAll",
            "outputs": [
                {
                    "internalType": "bool",
                    "name": "",
                    "type": "bool"
                }
            ],
            "stateMutability": "view",
            "type": "function"
        },
        {
            "inputs": [],
            "name": "makeAnEpicNFT",
            "outputs": [],
            "stateMutability": "nonpayable",
            "type": "function"
        },
        {
            "inputs": [],
            "name": "name",
            "outputs": [
                {
                    "internalType": "string",
                    "name": "",
                    "type": "string"
                }
            ],
            "stateMutability": "view",
            "type": "function"
        },
        {
            "inputs": [
                {
                    "internalType": "uint256",
                    "name": "tokenId",
                    "type": "uint256"
                }
            ],
            "name": "ownerOf",
            "outputs": [
                {
                    "internalType": "address",
                    "name": "",
                    "type": "address"
                }
            ],
            "stateMutability": "view",
            "type": "function"
        },
        {
            "inputs": [
                {
                    "internalType": "uint256",
                    "name": "tokenId",
                    "type": "uint256"
                }
            ],
            "name": "randomFirstWord",
            "outputs": [
                {
                    "internalType": "string",
                    "name": "",
                    "type": "string"
                }
            ],
            "stateMutability": "view",
            "type": "function"
        },
        {
            "inputs": [
                {
                    "internalType": "uint256",
                    "name": "tokenId",
                    "type": "uint256"
                }
            ],
            "name": "randomSecondWord",
            "outputs": [
                {
                    "internalType": "string",
                    "name": "",
                    "type": "string"
                }
            ],
            "stateMutability": "view",
            "type": "function"
        },
        {
            "inputs": [
                {
                    "internalType": "uint256",
                    "name": "tokenId",
                    "type": "uint256"
                }
            ],
            "name": "randomThirdWord",
            "outputs": [
                {
                    "internalType": "string",
                    "name": "",
                    "type": "string"
                }
            ],
            "stateMutability": "view",
            "type": "function"
        },
        {
            "inputs": [
                {
                    "internalType": "address",
                    "name": "from",
                    "type": "address"
                },
                {
                    "internalType": "address",
                    "name": "to",
                    "type": "address"
                },
                {
                    "internalType": "uint256",
                    "name": "tokenId",
                    "type": "uint256"
                }
            ],
            "name": "safeTransferFrom",
            "outputs": [],
            "stateMutability": "nonpayable",
            "type": "function"
        },
        {
            "inputs": [
                {
                    "internalType": "address",
                    "name": "from",
                    "type": "address"
                },
                {
                    "internalType": "address",
                    "name": "to",
                    "type": "address"
                },
                {
                    "internalType": "uint256",
                    "name": "tokenId",
                    "type": "uint256"
                },
                {
                    "internalType": "bytes",
                    "name": "_data",
                    "type": "bytes"
                }
            ],
            "name": "safeTransferFrom",
            "outputs": [],
            "stateMutability": "nonpayable",
            "type": "function"
        },
        {
            "inputs": [
                {
                    "internalType": "address",
                    "name": "operator",
                    "type": "address"
                },
                {
                    "internalType": "bool",
                    "name": "approved",
                    "type": "bool"
                }
            ],
            "name": "setApprovalForAll",
            "outputs": [],
            "stateMutability": "nonpayable",
            "type": "function"
        },
        {
            "inputs": [
                {
                    "internalType": "bytes4",
                    "name": "interfaceId",
                    "type": "bytes4"
                }
            ],
            "name": "supportsInterface",
            "outputs": [
                {
                    "internalType": "bool",
                    "name": "",
                    "type": "bool"
                }
            ],
            "stateMutability": "view",
            "type": "function"
        },
        {
            "inputs": [],
            "name": "symbol",
            "outputs": [
                {
                    "internalType": "string",
                    "name": "",
                    "type": "string"
                }
            ],
            "stateMutability": "view",
            "type": "function"
        },
        {
            "inputs": [
                {
                    "internalType": "uint256",
                    "name": "tokenId",
                    "type": "uint256"
                }
            ],
            "name": "tokenURI",
            "outputs": [
                {
                    "internalType": "string",
                    "name": "",
                    "type": "string"
                }
            ],
            "stateMutability": "view",
            "type": "function"
        },
        {
            "inputs": [
                {
                    "internalType": "address",
                    "name": "from",
                    "type": "address"
                },
                {
                    "internalType": "address",
                    "name": "to",
                    "type": "address"
                },
                {
                    "internalType": "uint256",
                    "name": "tokenId",
                    "type": "uint256"
                }
            ],
            "name": "transferFrom",
            "outputs": [],
            "stateMutability": "nonpayable",
            "type": "function"
        }
    ],
    "bytecode": "0x608060405260405180610160016040528061012f81526020016200486b61012f9139600890805190602001906200003892919062000cba565b50604051806101e001604052806040518060400160405280600681526020017f4c6542726f6e000000000000000000000000000000000000000000000000000081525081526020016040518060400160405280600481526020017f4b6f62650000000000000000000000000000000000000000000000000000000081525081526020016040518060400160405280600481526020017f536861710000000000000000000000000000000000000000000000000000000081525081526020016040518060400160405280600581526020017f4a61736f6e00000000000000000000000000000000000000000000000000000081525081526020016040518060400160405280600681526020017f44616d69616e000000000000000000000000000000000000000000000000000081525081526020016040518060400160405280600481526020017f547265790000000000000000000000000000000000000000000000000000000081525081526020016040518060400160405280600581526020017f4d6167696300000000000000000000000000000000000000000000000000000081525081526020016040518060400160405280600681526020017f4b617265656d000000000000000000000000000000000000000000000000000081525081526020016040518060400160405280600781526020017f446f6e6f76616e0000000000000000000000000000000000000000000000000081525081526020016040518060400160405280600481526020017f4576616e0000000000000000000000000000000000000000000000000000000081525081526020016040518060400160405280600781526020017f4d69636861656c0000000000000000000000000000000000000000000000000081525081526020016040518060400160405280600581526020017f497369616800000000000000000000000000000000000000000000000000000081525081526020016040518060400160405280600781526020017f5368616e6e6f6e0000000000000000000000000000000000000000000000000081525081526020016040518060400160405280600981526020017f4461436f6c64657374000000000000000000000000000000000000000000000081525081526020016040518060400160405280600581526020017f526f796365000000000000000000000000000000000000000000000000000000815250815250600990600f620003ca92919062000d4b565b50604051806101e001604052806040518060400160405280600581526020017f437572727900000000000000000000000000000000000000000000000000000081525081526020016040518060400160405280600481526020017f536f75700000000000000000000000000000000000000000000000000000000081525081526020016040518060400160405280600481526020017f526962730000000000000000000000000000000000000000000000000000000081525081526020016040518060400160405280600881526020017f506f7461746f657300000000000000000000000000000000000000000000000081525081526020016040518060400160405280600a81526020017f537472617762657272790000000000000000000000000000000000000000000081525081526020016040518060400160405280600681526020017f426167656c73000000000000000000000000000000000000000000000000000081525081526020016040518060400160405280600681526020017f436865657365000000000000000000000000000000000000000000000000000081525081526020016040518060400160405280600781526020017f437261636b65720000000000000000000000000000000000000000000000000081525081526020016040518060400160405280600681526020017f53616c6d6f6e000000000000000000000000000000000000000000000000000081525081526020016040518060400160405280600481526020017f467566750000000000000000000000000000000000000000000000000000000081525081526020016040518060400160405280600581526020017f537573686900000000000000000000000000000000000000000000000000000081525081526020016040518060400160405280600981526020017f48616d627572676572000000000000000000000000000000000000000000000081525081526020016040518060400160405280600781526020017f4275727269746f0000000000000000000000000000000000000000000000000081525081526020016040518060400160405280600981526020017f43686f636f6c617465000000000000000000000000000000000000000000000081525081526020016040518060400160405280600581526020017f546f617374000000000000000000000000000000000000000000000000000000815250815250600a90600f6200075c92919062000d4b565b50604051806101e001604052806040518060400160405280600a81526020017f416c62657274736f6e730000000000000000000000000000000000000000000081525081526020016040518060400160405280600681526020017f436f7374636f000000000000000000000000000000000000000000000000000081525081526020016040518060400160405280600781526020017f57616c6d6172740000000000000000000000000000000000000000000000000081525081526020016040518060400160405280600681526020017f4b726f676572000000000000000000000000000000000000000000000000000081525081526020016040518060400160405280600481526020017f566f6e730000000000000000000000000000000000000000000000000000000081525081526020016040518060400160405280600581526020017f4d6163797300000000000000000000000000000000000000000000000000000081525081526020016040518060400160405280600381526020017f48264d000000000000000000000000000000000000000000000000000000000081525081526020016040518060400160405280600981526020017f466f72657665723231000000000000000000000000000000000000000000000081525081526020016040518060400160405280600581526020017f5a6172617300000000000000000000000000000000000000000000000000000081525081526020016040518060400160405280600981526020017f4c756c756c656d6f6e000000000000000000000000000000000000000000000081525081526020016040518060400160405280600681526020017f5374616e6365000000000000000000000000000000000000000000000000000081525081526020016040518060400160405280600681526020017f536d69746873000000000000000000000000000000000000000000000000000081525081526020016040518060400160405280600781526020017f4861726d6f6e730000000000000000000000000000000000000000000000000081525081526020016040518060400160405280600a81526020017f57686f6c65466f6f64730000000000000000000000000000000000000000000081525081526020016040518060400160405280600781526020017f5370726f75747300000000000000000000000000000000000000000000000000815250815250600b90600f62000aee92919062000d4b565b5034801562000afc57600080fd5b506040518060400160405280600981526020017f5371756172654e465400000000000000000000000000000000000000000000008152506040518060400160405280600681526020017f5351554152450000000000000000000000000000000000000000000000000000815250816000908051906020019062000b8192919062000cba565b50806001908051906020019062000b9a92919062000cba565b50505062000be86040518060400160405280601e81526020017f54686973206973206d79204e465420636f6e74726163742e20576f616821000081525062000bee60201b620011431760201c565b62000f6c565b62000c8e8160405160240162000c05919062000e80565b6040516020818303038152906040527f41304fac000000000000000000000000000000000000000000000000000000007bffffffffffffffffffffffffffffffffffffffffffffffffffffffff19166020820180517bffffffffffffffffffffffffffffffffffffffffffffffffffffffff838183161783525050505062000c9160201b60201c565b50565b60008151905060006a636f6e736f6c652e6c6f679050602083016000808483855afa5050505050565b82805462000cc89062000ef6565b90600052602060002090601f01602090048101928262000cec576000855562000d38565b82601f1062000d0757805160ff191683800117855562000d38565b8280016001018555821562000d38579182015b8281111562000d3757825182559160200191906001019062000d1a565b5b50905062000d47919062000db2565b5090565b82805482825590600052602060002090810192821562000d9f579160200282015b8281111562000d9e57825182908051906020019062000d8d92919062000cba565b509160200191906001019062000d6c565b5b50905062000dae919062000dd1565b5090565b5b8082111562000dcd57600081600090555060010162000db3565b5090565b5b8082111562000df5576000818162000deb919062000df9565b5060010162000dd2565b5090565b50805462000e079062000ef6565b6000825580601f1062000e1b575062000e3c565b601f01602090049060005260206000209081019062000e3b919062000db2565b5b50565b600062000e4c8262000ea4565b62000e58818562000eaf565b935062000e6a81856020860162000ec0565b62000e758162000f5b565b840191505092915050565b6000602082019050818103600083015262000e9c818462000e3f565b905092915050565b600081519050919050565b600082825260208201905092915050565b60005b8381101562000ee057808201518184015260208101905062000ec3565b8381111562000ef0576000848401525b50505050565b6000600282049050600182168062000f0f57607f821691505b6020821081141562000f265762000f2562000f2c565b5b50919050565b7f4e487b7100000000000000000000000000000000000000000000000000000000600052602260045260246000fd5b6000601f19601f8301169050919050565b6138ef8062000f7c6000396000f3fe608060405234801561001057600080fd5b506004361061010b5760003560e01c806370a08231116100a2578063c87b56dd11610071578063c87b56dd146102c8578063de9d132f146102f8578063e985e9c514610302578063f3838e2914610332578063f9f431e4146103625761010b565b806370a082311461024257806395d89b4114610272578063a22cb46514610290578063b88d4fde146102ac5761010b565b806323b872dd116100de57806323b872dd146101aa57806342842e0e146101c657806352fac0c8146101e25780636352211e146102125761010b565b806301ffc9a71461011057806306fdde0314610140578063081812fc1461015e578063095ea7b31461018e575b600080fd5b61012a60048036038101906101259190612543565b610392565b6040516101379190613165565b60405180910390f35b610148610474565b6040516101559190613180565b60405180910390f35b61017860048036038101906101739190612595565b610506565b60405161018591906130d5565b60405180910390f35b6101a860048036038101906101a39190612507565b61058b565b005b6101c460048036038101906101bf9190612401565b6106a3565b005b6101e060048036038101906101db9190612401565b610703565b005b6101fc60048036038101906101f79190612595565b610723565b6040516102099190613180565b60405180910390f35b61022c60048036038101906102279190612595565b610841565b60405161023991906130d5565b60405180910390f35b61025c6004803603810190610257919061239c565b6108f3565b60405161026991906133e0565b60405180910390f35b61027a6109ab565b6040516102879190613180565b60405180910390f35b6102aa60048036038101906102a591906124cb565b610a3d565b005b6102c660048036038101906102c19190612450565b610a53565b005b6102e260048036038101906102dd9190612595565b610ab5565b6040516102ef9190613180565b60405180910390f35b610300610c07565b005b61031c600480360381019061031791906123c5565b610e73565b6040516103299190613165565b60405180910390f35b61034c60048036038101906103479190612595565b610f07565b6040516103599190613180565b60405180910390f35b61037c60048036038101906103779190612595565b611025565b6040516103899190613180565b60405180910390f35b60007f80ac58cd000000000000000000000000000000000000000000000000000000007bffffffffffffffffffffffffffffffffffffffffffffffffffffffff1916827bffffffffffffffffffffffffffffffffffffffffffffffffffffffff1916148061045d57507f5b5e139f000000000000000000000000000000000000000000000000000000007bffffffffffffffffffffffffffffffffffffffffffffffffffffffff1916827bffffffffffffffffffffffffffffffffffffffffffffffffffffffff1916145b8061046d575061046c826111dc565b5b9050919050565b6060600080546104839061367f565b80601f01602080910402602001604051908101604052809291908181526020018280546104af9061367f565b80156104fc5780601f106104d1576101008083540402835291602001916104fc565b820191906000526020600020905b8154815290600101906020018083116104df57829003601f168201915b5050505050905090565b600061051182611246565b610550576040517f08c379a000000000000000000000000000000000000000000000000000000000815260040161054790613340565b60405180910390fd5b6004600083815260200190815260200160002060009054906101000a900473ffffffffffffffffffffffffffffffffffffffff169050919050565b600061059682610841565b90508073ffffffffffffffffffffffffffffffffffffffff168373ffffffffffffffffffffffffffffffffffffffff161415610607576040517f08c379a00000000000000000000000000000000000000000000000000000000081526004016105fe906133a0565b60405180910390fd5b8073ffffffffffffffffffffffffffffffffffffffff166106266112b2565b73ffffffffffffffffffffffffffffffffffffffff16148061065557506106548161064f6112b2565b610e73565b5b610694576040517f08c379a000000000000000000000000000000000000000000000000000000000815260040161068b90613280565b60405180910390fd5b61069e83836112ba565b505050565b6106b46106ae6112b2565b82611373565b6106f3576040517f08c379a00000000000000000000000000000000000000000000000000000000081526004016106ea906133c0565b60405180910390fd5b6106fe838383611451565b505050565b61071e83838360405180602001604052806000815250610a53565b505050565b60606000610757610733846116ad565b6040516020016107439190613008565b60405160208183030381529060405261185a565b9050600b805490508161076a91906136fa565b9050600b81815481106107a6577f4e487b7100000000000000000000000000000000000000000000000000000000600052603260045260246000fd5b9060005260206000200180546107bb9061367f565b80601f01602080910402602001604051908101604052809291908181526020018280546107e79061367f565b80156108345780601f1061080957610100808354040283529160200191610834565b820191906000526020600020905b81548152906001019060200180831161081757829003601f168201915b5050505050915050919050565b6000806002600084815260200190815260200160002060009054906101000a900473ffffffffffffffffffffffffffffffffffffffff169050600073ffffffffffffffffffffffffffffffffffffffff168173ffffffffffffffffffffffffffffffffffffffff1614156108ea576040517f08c379a00000000000000000000000000000000000000000000000000000000081526004016108e1906132c0565b60405180910390fd5b80915050919050565b60008073ffffffffffffffffffffffffffffffffffffffff168273ffffffffffffffffffffffffffffffffffffffff161415610964576040517f08c379a000000000000000000000000000000000000000000000000000000000815260040161095b906132a0565b60405180910390fd5b600360008373ffffffffffffffffffffffffffffffffffffffff1673ffffffffffffffffffffffffffffffffffffffff168152602001908152602001600020549050919050565b6060600180546109ba9061367f565b80601f01602080910402602001604051908101604052809291908181526020018280546109e69061367f565b8015610a335780601f10610a0857610100808354040283529160200191610a33565b820191906000526020600020905b815481529060010190602001808311610a1657829003601f168201915b5050505050905090565b610a4f610a486112b2565b838361188d565b5050565b610a64610a5e6112b2565b83611373565b610aa3576040517f08c379a0000000000000000000000000000000000000000000000000000000008152600401610a9a906133c0565b60405180910390fd5b610aaf848484846119fa565b50505050565b6060610ac082611246565b610aff576040517f08c379a0000000000000000000000000000000000000000000000000000000008152600401610af690613320565b60405180910390fd5b6000600660008481526020019081526020016000208054610b1f9061367f565b80601f0160208091040260200160405190810160405280929190818152602001828054610b4b9061367f565b8015610b985780601f10610b6d57610100808354040283529160200191610b98565b820191906000526020600020905b815481529060010190602001808311610b7b57829003601f168201915b505050505090506000610ba9611a56565b9050600081511415610bbf578192505050610c02565b600082511115610bf4578082604051602001610bdc929190612f84565b60405160208183030381529060405292505050610c02565b610bfd84611a6d565b925050505b919050565b6000610c136007611b14565b90506000610c2082610f07565b90506000610c2d83611025565b90506000610c3a84610723565b90506000838383604051602001610c5393929190612fa8565b60405160208183030381529060405290506000600882604051602001610c7a929190612fd9565b60405160208183030381529060405290506000610cbf83610c9a84611b22565b604051602001610cab92919061304c565b604051602081830303815290604052611b22565b9050600081604051602001610cd491906130b3565b6040516020818303038152906040529050610d236040518060400160405280601581526020017f0a2d2d2d2d2d2d2d2d2d2d2d2d2d2d2d2d2d2d2d2d0000000000000000000000815250611143565b610d2c81611143565b610d6a6040518060400160405280601581526020017f2d2d2d2d2d2d2d2d2d2d2d2d2d2d2d2d2d2d2d2d0a0000000000000000000000815250611143565b610da86040518060400160405280601a81526020017f0a2d2d2d2d2d2d2d2d2d2d2d2d2d2d2d2d2d2d2d2d2d2d2d2d2d000000000000815250611143565b610db183611143565b610def6040518060400160405280601a81526020017f0a2d2d2d2d2d2d2d2d2d2d2d2d2d2d2d2d2d2d2d2d2d2d2d2d2d000000000000815250611143565b610df93389611ce0565b610e038882611cfe565b610e26604051806060016040528060258152602001613855602591398933611d72565b610e306007611e11565b7febb98688741ffa4c7589bf325de30cf7becb63de567842e1ccdb6cb949fdc82c3389604051610e6192919061313c565b60405180910390a15050505050505050565b6000600560008473ffffffffffffffffffffffffffffffffffffffff1673ffffffffffffffffffffffffffffffffffffffff16815260200190815260200160002060008373ffffffffffffffffffffffffffffffffffffffff1673ffffffffffffffffffffffffffffffffffffffff16815260200190815260200160002060009054906101000a900460ff16905092915050565b60606000610f3b610f17846116ad565b604051602001610f279190613091565b60405160208183030381529060405261185a565b905060098054905081610f4e91906136fa565b905060098181548110610f8a577f4e487b7100000000000000000000000000000000000000000000000000000000600052603260045260246000fd5b906000526020600020018054610f9f9061367f565b80601f0160208091040260200160405190810160405280929190818152602001828054610fcb9061367f565b80156110185780601f10610fed57610100808354040283529160200191611018565b820191906000526020600020905b815481529060010190602001808311610ffb57829003601f168201915b5050505050915050919050565b60606000611059611035846116ad565b604051602001611045919061302a565b60405160208183030381529060405261185a565b9050600a805490508161106c91906136fa565b9050600a81815481106110a8577f4e487b7100000000000000000000000000000000000000000000000000000000600052603260045260246000fd5b9060005260206000200180546110bd9061367f565b80601f01602080910402602001604051908101604052809291908181526020018280546110e99061367f565b80156111365780601f1061110b57610100808354040283529160200191611136565b820191906000526020600020905b81548152906001019060200180831161111957829003601f168201915b5050505050915050919050565b6111d9816040516024016111579190613180565b6040516020818303038152906040527f41304fac000000000000000000000000000000000000000000000000000000007bffffffffffffffffffffffffffffffffffffffffffffffffffffffff19166020820180517bffffffffffffffffffffffffffffffffffffffffffffffffffffffff8381831617835250505050611e27565b50565b60007f01ffc9a7000000000000000000000000000000000000000000000000000000007bffffffffffffffffffffffffffffffffffffffffffffffffffffffff1916827bffffffffffffffffffffffffffffffffffffffffffffffffffffffff1916149050919050565b60008073ffffffffffffffffffffffffffffffffffffffff166002600084815260200190815260200160002060009054906101000a900473ffffffffffffffffffffffffffffffffffffffff1673ffffffffffffffffffffffffffffffffffffffff1614159050919050565b600033905090565b816004600083815260200190815260200160002060006101000a81548173ffffffffffffffffffffffffffffffffffffffff021916908373ffffffffffffffffffffffffffffffffffffffff160217905550808273ffffffffffffffffffffffffffffffffffffffff1661132d83610841565b73ffffffffffffffffffffffffffffffffffffffff167f8c5be1e5ebec7d5bd14f71427d1e84f3dd0314c0f7b2291e5b200ac8c7c3b92560405160405180910390a45050565b600061137e82611246565b6113bd576040517f08c379a00000000000000000000000000000000000000000000000000000000081526004016113b490613260565b60405180910390fd5b60006113c883610841565b90508073ffffffffffffffffffffffffffffffffffffffff168473ffffffffffffffffffffffffffffffffffffffff16148061143757508373ffffffffffffffffffffffffffffffffffffffff1661141f84610506565b73ffffffffffffffffffffffffffffffffffffffff16145b8061144857506114478185610e73565b5b91505092915050565b8273ffffffffffffffffffffffffffffffffffffffff1661147182610841565b73ffffffffffffffffffffffffffffffffffffffff16146114c7576040517f08c379a00000000000000000000000000000000000000000000000000000000081526004016114be90613360565b60405180910390fd5b600073ffffffffffffffffffffffffffffffffffffffff168273ffffffffffffffffffffffffffffffffffffffff161415611537576040517f08c379a000000000000000000000000000000000000000000000000000000000815260040161152e90613220565b60405180910390fd5b611542838383611e50565b61154d6000826112ba565b6001600360008573ffffffffffffffffffffffffffffffffffffffff1673ffffffffffffffffffffffffffffffffffffffff168152602001908152602001600020600082825461159d9190613595565b925050819055506001600360008473ffffffffffffffffffffffffffffffffffffffff1673ffffffffffffffffffffffffffffffffffffffff16815260200190815260200160002060008282546115f491906134b4565b92505081905550816002600083815260200190815260200160002060006101000a81548173ffffffffffffffffffffffffffffffffffffffff021916908373ffffffffffffffffffffffffffffffffffffffff160217905550808273ffffffffffffffffffffffffffffffffffffffff168473ffffffffffffffffffffffffffffffffffffffff167fddf252ad1be2c89b69c2b068fc378daa952ba7f163c4a11628f55a4df523b3ef60405160405180910390a4505050565b606060008214156116f5576040518060400160405280600181526020017f30000000000000000000000000000000000000000000000000000000000000008152509050611855565b600082905060005b60008214611727578080611710906136b1565b915050600a82611720919061350a565b91506116fd565b60008167ffffffffffffffff811115611769577f4e487b7100000000000000000000000000000000000000000000000000000000600052604160045260246000fd5b6040519080825280601f01601f19166020018201604052801561179b5781602001600182028036833780820191505090505b5090505b6000851461184e576001826117b49190613595565b9150600a856117c391906136fa565b60306117cf91906134b4565b60f81b81838151811061180b577f4e487b7100000000000000000000000000000000000000000000000000000000600052603260045260246000fd5b60200101907effffffffffffffffffffffffffffffffffffffffffffffffffffffffffffff1916908160001a905350600a85611847919061350a565b945061179f565b8093505050505b919050565b60008160405160200161186d9190612f6d565b6040516020818303038152906040528051906020012060001c9050919050565b8173ffffffffffffffffffffffffffffffffffffffff168373ffffffffffffffffffffffffffffffffffffffff1614156118fc576040517f08c379a00000000000000000000000000000000000000000000000000000000081526004016118f390613240565b60405180910390fd5b80600560008573ffffffffffffffffffffffffffffffffffffffff1673ffffffffffffffffffffffffffffffffffffffff16815260200190815260200160002060008473ffffffffffffffffffffffffffffffffffffffff1673ffffffffffffffffffffffffffffffffffffffff16815260200190815260200160002060006101000a81548160ff0219169083151502179055508173ffffffffffffffffffffffffffffffffffffffff168373ffffffffffffffffffffffffffffffffffffffff167f17307eab39ab6107e8899845ad3d59bd9653f200f220920489ca2b5937696c31836040516119ed9190613165565b60405180910390a3505050565b611a05848484611451565b611a1184848484611e55565b611a50576040517f08c379a0000000000000000000000000000000000000000000000000000000008152600401611a47906131e0565b60405180910390fd5b50505050565b606060405180602001604052806000815250905090565b6060611a7882611246565b611ab7576040517f08c379a0000000000000000000000000000000000000000000000000000000008152600401611aae90613380565b60405180910390fd5b6000611ac1611a56565b90506000815111611ae15760405180602001604052806000815250611b0c565b80611aeb846116ad565b604051602001611afc929190612f84565b6040516020818303038152906040525b915050919050565b600081600001549050919050565b60606000825190506000811415611b4b5760405180602001604052806000815250915050611cdb565b60006003600283611b5c91906134b4565b611b66919061350a565b6004611b72919061353b565b90506000602082611b8391906134b4565b67ffffffffffffffff811115611bc2577f4e487b7100000000000000000000000000000000000000000000000000000000600052604160045260246000fd5b6040519080825280601f01601f191660200182016040528015611bf45781602001600182028036833780820191505090505b509050600060405180606001604052806040815260200161387a604091399050600181016020830160005b86811015611c985760038101905062ffffff818a015116603f8160121c168401518060081b905060ff603f83600c1c1686015116810190508060081b905060ff603f8360061c1686015116810190508060081b905060ff603f831686015116810190508060e01b90508084526004840193505050611c1f565b506003860660018114611cb25760028114611cc257611ccd565b613d3d60f01b6002830352611ccd565b603d60f81b60018303525b508484525050819450505050505b919050565b611cfa828260405180602001604052806000815250611fec565b5050565b611d0782611246565b611d46576040517f08c379a0000000000000000000000000000000000000000000000000000000008152600401611d3d906132e0565b60405180910390fd5b80600660008481526020019081526020016000209080519060200190611d6d929190612228565b505050565b611e0c838383604051602401611d8a939291906131a2565b6040516020818303038152906040527fe3849f79000000000000000000000000000000000000000000000000000000007bffffffffffffffffffffffffffffffffffffffffffffffffffffffff19166020820180517bffffffffffffffffffffffffffffffffffffffffffffffffffffffff8381831617835250505050611e27565b505050565b6001816000016000828254019250508190555050565b60008151905060006a636f6e736f6c652e6c6f679050602083016000808483855afa5050505050565b505050565b6000611e768473ffffffffffffffffffffffffffffffffffffffff16612047565b15611fdf578373ffffffffffffffffffffffffffffffffffffffff1663150b7a02611e9f6112b2565b8786866040518563ffffffff1660e01b8152600401611ec194939291906130f0565b602060405180830381600087803b158015611edb57600080fd5b505af1925050508015611f0c57506040513d601f19601f82011682018060405250810190611f09919061256c565b60015b611f8f573d8060008114611f3c576040519150601f19603f3d011682016040523d82523d6000602084013e611f41565b606091505b50600081511415611f87576040517f08c379a0000000000000000000000000000000000000000000000000000000008152600401611f7e906131e0565b60405180910390fd5b805181602001fd5b63150b7a0260e01b7bffffffffffffffffffffffffffffffffffffffffffffffffffffffff1916817bffffffffffffffffffffffffffffffffffffffffffffffffffffffff191614915050611fe4565b600190505b949350505050565b611ff6838361205a565b6120036000848484611e55565b612042576040517f08c379a0000000000000000000000000000000000000000000000000000000008152600401612039906131e0565b60405180910390fd5b505050565b600080823b905060008111915050919050565b600073ffffffffffffffffffffffffffffffffffffffff168273ffffffffffffffffffffffffffffffffffffffff1614156120ca576040517f08c379a00000000000000000000000000000000000000000000000000000000081526004016120c190613300565b60405180910390fd5b6120d381611246565b15612113576040517f08c379a000000000000000000000000000000000000000000000000000000000815260040161210a90613200565b60405180910390fd5b61211f60008383611e50565b6001600360008473ffffffffffffffffffffffffffffffffffffffff1673ffffffffffffffffffffffffffffffffffffffff168152602001908152602001600020600082825461216f91906134b4565b92505081905550816002600083815260200190815260200160002060006101000a81548173ffffffffffffffffffffffffffffffffffffffff021916908373ffffffffffffffffffffffffffffffffffffffff160217905550808273ffffffffffffffffffffffffffffffffffffffff16600073ffffffffffffffffffffffffffffffffffffffff167fddf252ad1be2c89b69c2b068fc378daa952ba7f163c4a11628f55a4df523b3ef60405160405180910390a45050565b8280546122349061367f565b90600052602060002090601f016020900481019282612256576000855561229d565b82601f1061226f57805160ff191683800117855561229d565b8280016001018555821561229d579182015b8281111561229c578251825591602001919060010190612281565b5b5090506122aa91906122ae565b5090565b5b808211156122c75760008160009055506001016122af565b5090565b60006122de6122d98461342c565b6133fb565b9050828152602081018484840111156122f657600080fd5b61230184828561363d565b509392505050565b600081359050612318816137f8565b92915050565b60008135905061232d8161380f565b92915050565b60008135905061234281613826565b92915050565b60008151905061235781613826565b92915050565b600082601f83011261236e57600080fd5b813561237e8482602086016122cb565b91505092915050565b6000813590506123968161383d565b92915050565b6000602082840312156123ae57600080fd5b60006123bc84828501612309565b91505092915050565b600080604083850312156123d857600080fd5b60006123e685828601612309565b92505060206123f785828601612309565b9150509250929050565b60008060006060848603121561241657600080fd5b600061242486828701612309565b935050602061243586828701612309565b925050604061244686828701612387565b9150509250925092565b6000806000806080858703121561246657600080fd5b600061247487828801612309565b945050602061248587828801612309565b935050604061249687828801612387565b925050606085013567ffffffffffffffff8111156124b357600080fd5b6124bf8782880161235d565b91505092959194509250565b600080604083850312156124de57600080fd5b60006124ec85828601612309565b92505060206124fd8582860161231e565b9150509250929050565b6000806040838503121561251a57600080fd5b600061252885828601612309565b925050602061253985828601612387565b9150509250929050565b60006020828403121561255557600080fd5b600061256384828501612333565b91505092915050565b60006020828403121561257e57600080fd5b600061258c84828501612348565b91505092915050565b6000602082840312156125a757600080fd5b60006125b584828501612387565b91505092915050565b6125c7816135c9565b82525050565b6125d6816135db565b82525050565b60006125e782613471565b6125f18185613487565b935061260181856020860161364c565b61260a816137e7565b840191505092915050565b60006126208261347c565b61262a8185613498565b935061263a81856020860161364c565b612643816137e7565b840191505092915050565b60006126598261347c565b61266381856134a9565b935061267381856020860161364c565b80840191505092915050565b6000815461268c8161367f565b61269681866134a9565b945060018216600081146126b157600181146126c2576126f5565b60ff198316865281860193506126f5565b6126cb8561345c565b60005b838110156126ed578154818901526001820191506020810190506126ce565b838801955050505b50505092915050565b600061270b603283613498565b91507f4552433732313a207472616e7366657220746f206e6f6e20455243373231526560008301527f63656976657220696d706c656d656e74657200000000000000000000000000006020830152604082019050919050565b6000612771601c83613498565b91507f4552433732313a20746f6b656e20616c7265616479206d696e746564000000006000830152602082019050919050565b60006127b1600a836134a9565b91507f54484952445f574f5244000000000000000000000000000000000000000000006000830152600a82019050919050565b60006127f1602483613498565b91507f4552433732313a207472616e7366657220746f20746865207a65726f2061646460008301527f72657373000000000000000000000000000000000000000000000000000000006020830152604082019050919050565b6000612857601983613498565b91507f4552433732313a20617070726f766520746f2063616c6c6572000000000000006000830152602082019050919050565b60006128976063836134a9565b91507f222c20226465736372697074696f6e223a20224120686967686c79206163636c60008301527f61696d656420636f6c6c656374696f6e206f6620737175617265732e222c202260208301527f696d616765223a2022646174613a696d6167652f7376672b786d6c3b6261736560408301527f36342c00000000000000000000000000000000000000000000000000000000006060830152606382019050919050565b6000612949600b836134a9565b91507f5345434f4e445f574f52440000000000000000000000000000000000000000006000830152600b82019050919050565b6000612989602c83613498565b91507f4552433732313a206f70657261746f7220717565727920666f72206e6f6e657860008301527f697374656e7420746f6b656e00000000000000000000000000000000000000006020830152604082019050919050565b60006129ef600d836134a9565b91507f3c2f746578743e3c2f7376673e000000000000000000000000000000000000006000830152600d82019050919050565b6000612a2f603883613498565b91507f4552433732313a20617070726f76652063616c6c6572206973206e6f74206f7760008301527f6e6572206e6f7220617070726f76656420666f7220616c6c00000000000000006020830152604082019050919050565b6000612a95602a83613498565b91507f4552433732313a2062616c616e636520717565727920666f7220746865207a6560008301527f726f2061646472657373000000000000000000000000000000000000000000006020830152604082019050919050565b6000612afb602983613498565b91507f4552433732313a206f776e657220717565727920666f72206e6f6e657869737460008301527f656e7420746f6b656e00000000000000000000000000000000000000000000006020830152604082019050919050565b6000612b61602e83613498565b91507f45524337323155524953746f726167653a2055524920736574206f66206e6f6e60008301527f6578697374656e7420746f6b656e0000000000000000000000000000000000006020830152604082019050919050565b6000612bc76002836134a9565b91507f227d0000000000000000000000000000000000000000000000000000000000006000830152600282019050919050565b6000612c07602083613498565b91507f4552433732313a206d696e7420746f20746865207a65726f20616464726573736000830152602082019050919050565b6000612c47603183613498565b91507f45524337323155524953746f726167653a2055524920717565727920666f722060008301527f6e6f6e6578697374656e7420746f6b656e0000000000000000000000000000006020830152604082019050919050565b6000612cad602c83613498565b91507f4552433732313a20617070726f76656420717565727920666f72206e6f6e657860008301527f697374656e7420746f6b656e00000000000000000000000000000000000000006020830152604082019050919050565b6000612d13602983613498565b91507f4552433732313a207472616e73666572206f6620746f6b656e2074686174206960008301527f73206e6f74206f776e00000000000000000000000000000000000000000000006020830152604082019050919050565b6000612d79602f83613498565b91507f4552433732314d657461646174613a2055524920717565727920666f72206e6f60008301527f6e6578697374656e7420746f6b656e00000000000000000000000000000000006020830152604082019050919050565b6000612ddf600a836134a9565b91507f7b226e616d65223a2022000000000000000000000000000000000000000000006000830152600a82019050919050565b6000612e1f602183613498565b91507f4552433732313a20617070726f76616c20746f2063757272656e74206f776e6560008301527f72000000000000000000000000000000000000000000000000000000000000006020830152604082019050919050565b6000612e85600a836134a9565b91507f46495253545f574f5244000000000000000000000000000000000000000000006000830152600a82019050919050565b6000612ec5601d836134a9565b91507f646174613a6170706c69636174696f6e2f6a736f6e3b6261736536342c0000006000830152601d82019050919050565b6000612f05603183613498565b91507f4552433732313a207472616e736665722063616c6c6572206973206e6f74206f60008301527f776e6572206e6f7220617070726f7665640000000000000000000000000000006020830152604082019050919050565b612f6781613633565b82525050565b6000612f79828461264e565b915081905092915050565b6000612f90828561264e565b9150612f9c828461264e565b91508190509392505050565b6000612fb4828661264e565b9150612fc0828561264e565b9150612fcc828461264e565b9150819050949350505050565b6000612fe5828561267f565b9150612ff1828461264e565b9150612ffc826129e2565b91508190509392505050565b6000613013826127a4565b915061301f828461264e565b915081905092915050565b60006130358261293c565b9150613041828461264e565b915081905092915050565b600061305782612dd2565b9150613063828561264e565b915061306e8261288a565b915061307a828461264e565b915061308582612bba565b91508190509392505050565b600061309c82612e78565b91506130a8828461264e565b915081905092915050565b60006130be82612eb8565b91506130ca828461264e565b915081905092915050565b60006020820190506130ea60008301846125be565b92915050565b600060808201905061310560008301876125be565b61311260208301866125be565b61311f6040830185612f5e565b818103606083015261313181846125dc565b905095945050505050565b600060408201905061315160008301856125be565b61315e6020830184612f5e565b9392505050565b600060208201905061317a60008301846125cd565b92915050565b6000602082019050818103600083015261319a8184612615565b905092915050565b600060608201905081810360008301526131bc8186612615565b90506131cb6020830185612f5e565b6131d860408301846125be565b949350505050565b600060208201905081810360008301526131f9816126fe565b9050919050565b6000602082019050818103600083015261321981612764565b9050919050565b60006020820190508181036000830152613239816127e4565b9050919050565b600060208201905081810360008301526132598161284a565b9050919050565b600060208201905081810360008301526132798161297c565b9050919050565b6000602082019050818103600083015261329981612a22565b9050919050565b600060208201905081810360008301526132b981612a88565b9050919050565b600060208201905081810360008301526132d981612aee565b9050919050565b600060208201905081810360008301526132f981612b54565b9050919050565b6000602082019050818103600083015261331981612bfa565b9050919050565b6000602082019050818103600083015261333981612c3a565b9050919050565b6000602082019050818103600083015261335981612ca0565b9050919050565b6000602082019050818103600083015261337981612d06565b9050919050565b6000602082019050818103600083015261339981612d6c565b9050919050565b600060208201905081810360008301526133b981612e12565b9050919050565b600060208201905081810360008301526133d981612ef8565b9050919050565b60006020820190506133f56000830184612f5e565b92915050565b6000604051905081810181811067ffffffffffffffff82111715613422576134216137b8565b5b8060405250919050565b600067ffffffffffffffff821115613447576134466137b8565b5b601f19601f8301169050602081019050919050565b60008190508160005260206000209050919050565b600081519050919050565b600081519050919050565b600082825260208201905092915050565b600082825260208201905092915050565b600081905092915050565b60006134bf82613633565b91506134ca83613633565b9250827fffffffffffffffffffffffffffffffffffffffffffffffffffffffffffffffff038211156134ff576134fe61372b565b5b828201905092915050565b600061351582613633565b915061352083613633565b9250826135305761352f61375a565b5b828204905092915050565b600061354682613633565b915061355183613633565b9250817fffffffffffffffffffffffffffffffffffffffffffffffffffffffffffffffff048311821515161561358a5761358961372b565b5b828202905092915050565b60006135a082613633565b91506135ab83613633565b9250828210156135be576135bd61372b565b5b828203905092915050565b60006135d482613613565b9050919050565b60008115159050919050565b60007fffffffff0000000000000000000000000000000000000000000000000000000082169050919050565b600073ffffffffffffffffffffffffffffffffffffffff82169050919050565b6000819050919050565b82818337600083830152505050565b60005b8381101561366a57808201518184015260208101905061364f565b83811115613679576000848401525b50505050565b6000600282049050600182168061369757607f821691505b602082108114156136ab576136aa613789565b5b50919050565b60006136bc82613633565b91507fffffffffffffffffffffffffffffffffffffffffffffffffffffffffffffffff8214156136ef576136ee61372b565b5b600182019050919050565b600061370582613633565b915061371083613633565b9250826137205761371f61375a565b5b828206905092915050565b7f4e487b7100000000000000000000000000000000000000000000000000000000600052601160045260246000fd5b7f4e487b7100000000000000000000000000000000000000000000000000000000600052601260045260246000fd5b7f4e487b7100000000000000000000000000000000000000000000000000000000600052602260045260246000fd5b7f4e487b7100000000000000000000000000000000000000000000000000000000600052604160045260246000fd5b6000601f19601f8301169050919050565b613801816135c9565b811461380c57600080fd5b50565b613818816135db565b811461382357600080fd5b50565b61382f816135e7565b811461383a57600080fd5b50565b61384681613633565b811461385157600080fd5b5056fe416e204e465420772f20494420257320686173206265656e206d696e74656420746f2025734142434445464748494a4b4c4d4e4f505152535455565758595a6162636465666768696a6b6c6d6e6f707172737475767778797a303132333435363738392b2fa2646970667358221220298d46c265be2efb6b6686515d99a42944e831da460c614309dc9a2ffc7caf2e64736f6c634300080000333c73766720786d6c6e733d27687474703a2f2f7777772e77332e6f72672f323030302f73766727207072657365727665417370656374526174696f3d27784d696e594d696e206d656574272076696577426f783d273020302033353020333530273e3c7374796c653e2e62617365207b2066696c6c3a2077686974653b20666f6e742d66616d696c793a2073657269663b20666f6e742d73697a653a20323470783b207d3c2f7374796c653e3c726563742077696474683d273130302527206865696768743d2731303025272066696c6c3d27626c61636b27202f3e3c7465787420783d273530252720793d273530252720636c6173733d27626173652720646f6d696e616e742d626173656c696e653d276d6964646c652720746578742d616e63686f723d276d6964646c65273e",
    "linkReferences": {},
    "deployedLinkReferences": {}
}